     8809 (C)USPS   001                              
00401000000000100010001NY119WESTCHESTER              
02186000046200152665266MA021NORFOLK                  
06111000092400149014901CT003HARTFORD                 
07901000138600122082208NJ039UNION                    
10463000184800117051705NY005BRONX                    
